:02000000442A90
:10000800FF00030E8301EA000A08E7008A0170086E
:10001800A1007108A0000408A2000B1D2E28540896
:10002800F0005508F1005608F2005708F300F00AEE
:100038000319F10A0319F20A0319F30A7008D40024
:100048007108D5007208D6007308D70064308100A3
:100058000B115B288C1E5B28082270088316B600DB
:1000680070085B3A031D3E28A0308312DE00013081
:10007800D3005828831636085D3A031D4B2883128F
:100088005308013A031D4B28D30113225828831221
:1000980003135308013A031D58285E088400831689
:1000A800360880008312DE0A831203138C1221089B
:1000B800F0002008F1002208840067088A006A0E10
:0800C8008300FF0E7F0E09000A
:1000D0008316031398186D286828051083120510DD
:0200E000080016
:1000E20083160313981877280000712835088312A5
:0400F2009900080069
:0C00F60083160313051083120514080084
:08010200682083168C1608002A
:10010A0083160313B40183126E0884000008EF00FB
:10011A006F08003A03199E286F088316B5007120EC
:10012A008316B40A340883126E0784000008EF00AD
:04013A008D28080004
:08013E007B2083168C120800DF
:100146009F203C308312EE0085206D08EE0085204E
:100156006C08003A031DB3283A30EE008520B62815
:100166003830EE0085204630EE00852081200800DC
:0E0176008312031369088A00680882000800DB
:1001840000308312031306180130EC004230ED00F6
:10019400A3201A30FC00F830FD00FD0BCF28FC0B27
:1001A400CF2800000030831286180130EC003E3066
:1001B400ED00A3201A30FC00F830FD00FD0BE02810
:1001C400FC0BE028000083120619EA280314EB282C
:1001D4000310003003180130EC002B30ED00A32095
:1001E4001A30FC00F830FD00FD0BF628FC0BF62855
:1001F400000083128619002903140129031000301A
:1002040003180130EC002730ED00A3201A30FC0065
:10021400F830FD00FD0B0C29FC0B0C2900008312A7
:10022400061A162903141729031000300318013085
:10023400EC002330ED00A3201A30FC00F830FD0060
:10024400FD0B2229FC0B222900008312861A2C297B
:1002540003142D290310003003180130EC0034304E
:10026400ED00A3201A30FC00F830FD00FD0B382906
:10027400FC0B382900008312061B4229031443296E
:100284000310003003180130EC003030ED00A320DF
:100294001A30FC00F830FD00FD0B4E29FC0B4E29F2
:1002A400000083122F08EC005830ED00A320080052
:1002B4009F205B30B50071206B0884000008003A71
:1002C40003196C296B08840000088316B50071209B
:1002D400EB0A5E295D308316B50071208120080089
:1002E4008312031357086602031D82295608650208
:1002F400031D822955086402031D822954086302E0
:10030400031887290130EB008829EB016B08031DD2
:100314008C29A229C220F4308312E3000130E400C6
:10032400E501E6015408E30755080318550FE407EF
:1003340056080318560FE50757080318570FE60722
:020344000800AF
:100346008630831603138100643083128100E03007
:080356008B000B118B1608004F
:10035E00831603139816903083129800831687170E
:10036E00071383128C1EBE291A08F000B829080044
:10037E0083160317880189013F3086000313051089
:0A038E0083120617861305100800FD
:100398008312031357086202031DDC295608610201
:1003A800031DDC2955086002031DDC2954085F027F
:1003B8000318E1290130F100E229F1017108031D58
:1003C800E629FB29803086063230DF00E001E101B2
:1003D800E2015408DF0755080318550FE0075608CF
:1003E8000318560FE10757080318570FE2070800CC
:1003F800BB208A110A128000840AE80A0319E90A54
:08040800F003031DFC290800AC
:10041000831203131A08F100981C102A18121816D8
:060420007108F000080065
:10042600831603132008563A031D2C2A2108323A54
:10043600031D2C2A2208563A031D2C2A303023028B
:100446008312DD005C30F100710884000130800009
:10045600432A83162008413A031D432A2108553AA8
:10046600031D432A2208543A031D432A303023022F
:100476008312AF004D30F100710884000130800016
:0204860008006C
:10048800F622BF213330831699001815AF210230A8
:10049800FB000430FC00BA30FD00FD0B512AFC0BB8
:1004A800512AFB0B512A0000A321A3218C12831689
:1004B8008C1632308312DF00E001E101E2015408BA
:1004C800DF0755080318550FE00756080318560F9D
:1004D800E10757080318570FE207F430E30001302B
:1004E800E400E501E6015408E30755080318550F31
:1004F800E40756080318560FE50757080318570F5F
:10050800E6072F08013A031D942A061C8E2A861C2A
:100518008E2A922A061D922A0613932A06179E2AC5
:10052800061D9C2A5D08013A031D9C2A06139E2A73
:100538000617DD015C08013A031DA82A4E30EB00BE
:100548005A218312DC01B12A4D08013A031DB12A50
:100558004830EB005A218312CD017221CC21852A23
:02056800B42AB3
:1005EC00233084003B3083120313F000BA30E80050
:0805FC000230E900FC210800B7
:080574004534443434340034F2
:08057C004534443433340034EB
:080584004534443432340034E4
:02058C00003439
:08058E005634323456340034B7
:080596004534443435340034CF
:04059E0031340034C0
:0405A20030340034BD
:0405A6005B3400348E
:0805AA004534443431340034BF
:0805B2004534443430340034B8
:0405BA005D34003478
:0A05BE00433432344F344B34003420
:0205C8000034FD
:0A05CA00433431344F344B34003415
:0205D4000034F1
:0805D60000340034003400344D
:0805DE0041345534543400345B
:0205E6000034DF
:0205E8000034DD
:04400E00B22F0007C6
:00000001FF
